:10000000C2B0C2B1C2B2C2B31200A31200D2743ADB
:0E0010001200C5758912758AFAD28C1200E3AF
:10001E001200C59430F81200E31200C59430F9E8CE
:0F002E0075F00AA429FAEAB4050050030200A0F5
:10003D00B4370040030200A075F004E58A84AFF0E8
:0F004D00FEEFC2B0C2B1C2B2C2B3B40002D2B0B1
:0F005C00B40102D2B1B40202D2B2B40302D2B3E1
:10006B00758DFE758B70D28E308FFDC28F1200A3F3
:10007B0074301200C574301200C5743A1200C5EA10
:10008B0075F00A8424301200C5E5F024301200C547
:10009B00DACE0200A0020000743811B8740F11B848
:0F00AB00740611B8740111B8748011B822F59061
:0F00BA00C2B5C2B6D2B711D2C2B722F590D2B535
:0F00C900C2B6D2B711D2C2B722C000C0017802AE
:0E00D8007902D9FED8FAD001D000227580FF3F
:1000E60075A000E580540FB40FF611D2E580540FC9
:1000F600B40F0280F511D2E580540FB40F0280EAE6
:0F01060075A0FEE580540FB40F2175A0FDE580B4
:0F011500540FB40F1C75A0FBE580540FB40F17E7
:1001240075A0F7E580540FB40F120200F090014C53
:10013400800D900150800890015480039001581361
:100144005003A380FAE493223132334134353642EA
:08015400373839432A302344F7
:00000001FF
